:100000000C9434000C9449000C9449000C94490061
:100010000C9449000C9449000C9449000C9449003C
:100020000C9449000C9449000C9449000C9449002C
:100030000C9449000C9449000C9449000C9449001C
:100040000C9449000C9449000C9449000C9449000C
:100050000C9449000C9449000C9449000C944900FC
:100060000C9449000C94490011241FBECFEFD8E036
:10007000DEBFCDBF11E0A0E0B1E0EEE0F4E002C0F1
:1000800005900D92A031B107D9F70E94DB010C94C5
:1000900005020C9400008330A0F5813099F0823085
:1000A00011F1663070F581E090E001C0880F6A952B
:1000B000EAF794B1452B21F48095892384B90895FA
:1000C000892BFCCF6730E8F481E090E001C0880F15
:1000D0006A95EAF797B1452B21F48095892387B972
:1000E0000895892BFCCF683060F481E090E001C076
:1000F000880F6A95EAF79AB1452B21F480958923F8
:100100008AB90895892BFCCF833008F053C0813021
:10011000F1F08230B9F1663008F04CC084B190E063
:10012000062E02C0959587950A94E2F780FF42C09B
:1001300081E090E001C0880F6A95EAF795B141111E
:1001400004C08095892385B90895892BFCCF673039
:1001500088F587B190E0062E02C0959587950A94A0
:10016000E2F780FF27C081E090E001C0880F6A9528
:10017000EAF798B1411104C08095892388B90895A0
:10018000892BFCCF6830B0F48AB190E0062E02C013
:10019000959587950A94E2F780FF0CC081E090E086
:1001A00001C0880F6A95EAF79BB1411104C08095A0
:1001B00089238BB90895892BFCCF833078F4813063
:1001C00079F0823089F0663048F483B190E002C063
:1001D000959587956A95E2F7982F9170892F0895E4
:1001E0006730E0F786B1F2CF6830C0F789B1EECF63
:1001F000833048F4813021F0823021F064B90895D1
:1002000067B908956AB90895833090F4813039F060
:10021000823051F084B18F3F59F465B9089587B1A8
:100220008F3F31F468B908958AB18F3F09F46BB9F3
:100230000895833028F4813029F0823029F093B179
:10024000892F089596B1FCCF99B1FACFAF92BF92A2
:10025000CF92DF92EF92FF920F931F93CF93DF9392
:10026000CDB7DEB728970FB6F894DEBF0FBECDBF6F
:100270008C0141E050E0FC01618180810E944B00D3
:1002800041E050E0F801638182810E944B0041E02F
:1002900050E0F801658184810E944B0041E050E00C
:1002A000F801678186810E944B0050E040E0F80130
:1002B000618580850E944B0050E040E0F801638535
:1002C00082850E944B0050E040E0F80165858485FE
:1002D0000E944B0050E040E0F801678586850E944F
:1002E0004B00F801808591859A8389838285938567
:1002F0009C838B83848595859E838D838685978556
:1003000098878F83F12CEE24E3944E2D4170F801F1
:10031000618180810E948400E1FA442740F9F8015C
:10032000638182810E948400E2FA442740F9F80147
:10033000658184810E948400E3FA442740F9F80132
:10034000678186810E948400CE0101965C01D12CD8
:10035000C12CF501618180810E94DD008823D1F0EC
:1003600084E0F89EF0011124E050FF4FEC0DFD1DDC
:10037000808128960FB6F894DEBF0FBECDBFDF9107
:10038000CF911F910F91FF90EF90DF90CF90BF9092
:10039000AF9008959FEFC91AD90AE2E0AE0EB11CE2
:1003A000F4E0CF16D104A9F6EE0CF39484E0F81231
:1003B000ACCF8DE2DECFCDB7DEB760970FB6F89445
:1003C000DEBF0FBECDBF259A82E089838B838D83EC
:1003D0008F8389878B878D878F871A8291E09C8393
:1003E0008E8383E0888784E08A8785E08C8786E037
:1003F0008E8787E0888BCE0101960E94260183328A
:0E04000011F42D9AF8CF2D98F6CFF894FFCF77
:10040E003132334134353642373839432A3023447A
:00000001FF
