:100000000C9434000C9449000C9449000C94490061
:100010000C9449000C9449000C9449000C9449003C
:100020000C9449000C9449000C9449000C9449002C
:100030000C9449000C9449000C9449000C9449001C
:100040000C9449000C9449000C9449000C9449000C
:100050000C9449000C9449000C9449000C944900FC
:100060000C9449000C94490011241FBECFEFD8E036
:10007000DEBFCDBF11E0A0E0B1E0E2E7F3E002C0F7
:1000800005900D92A830B107D9F70E94B6010C94E3
:10009000B7010C9400008330A0F5813099F08230D4
:1000A00011F1663070F581E090E001C0880F6A952B
:1000B000EAF794B1452B21F48095892384B90895FA
:1000C000892BFCCF6730E8F481E090E001C0880F15
:1000D0006A95EAF797B1452B21F48095892387B972
:1000E0000895892BFCCF683060F481E090E001C076
:1000F000880F6A95EAF79AB1452B21F480958923F8
:100100008AB90895892BFCCF833008F053C0813021
:10011000F1F08230B9F1663008F04CC084B190E063
:10012000062E02C0959587950A94E2F780FF42C09B
:1001300081E090E001C0880F6A95EAF795B141111E
:1001400004C08095892385B90895892BFCCF673039
:1001500088F587B190E0062E02C0959587950A94A0
:10016000E2F780FF27C081E090E001C0880F6A9528
:10017000EAF798B1411104C08095892388B90895A0
:10018000892BFCCF6830B0F48AB190E0062E02C013
:10019000959587950A94E2F780FF0CC081E090E086
:1001A00001C0880F6A95EAF79BB1411104C08095A0
:1001B00089238BB90895892BFCCF833078F4813063
:1001C00079F0823089F0663048F483B190E002C063
:1001D000959587956A95E2F7982F9170892F0895E4
:1001E0006730E0F786B1F2CF6830C0F789B1EECF63
:1001F000833048F4813021F0823021F064B90895D1
:1002000067B908956AB90895833090F4813039F060
:10021000823051F084B18F3F59F465B9089587B1A8
:100220008F3F31F468B908958AB18F3F09F46BB9F3
:100230000895833028F4813029F0823029F093B179
:10024000892F089596B1FCCF99B1FACFCF93DF9360
:10025000EC0141E050E0698188810E944B0041E05F
:1002600050E06B818A810E944B0041E050E06D813B
:100270008C810E944B0041E050E06F818E810E9492
:100280004B0041E050E0698588850E944B0041E0C9
:1002900050E06B858A850E944B0041E050E06D85FF
:1002A0008C850E944B0041E050E06F858E85DF9188
:1002B000CF910C944B001F93CF93DF93EC016031EF
:1002C00008F050C0E62FF0E0E050FF4F108160E0F2
:1002D000812F0E94DD00482F698188810E9484005F
:1002E00061E0812F0E94DD00482F6B818A810E948E
:1002F000840062E0812F0E94DD00482F6B818A819B
:100300000E94840063E0812F0E94DD00482F6F81EE
:100310008E810E94840064E0812F0E94DD00482FBE
:10032000698588850E94840065E0812F0E94DD0038
:10033000482F6B858A850E94840066E0812F0E9489
:10034000DD00482F6D858C850E94840067E0812F39
:100350000E94DD00482F6F858E85DF91CF911F9120
:100360000C948400DF91CF911F910895FFCFF894F2
:02037000FFCFBD
:080372003F065B4F666D7D0044
:00000001FF
