:100000000C9434000C943E000C943E000C943E0082
:100010000C943E000C943E000C943E000C943E0068
:100020000C943E000C943E000C943E000C943E0058
:100030000C943E000C943E000C943E000C943E0048
:100040000C943E000C943E000C943E000C943E0038
:100050000C943E000C943E000C943E000C943E0028
:100060000C943E000C943E0011241FBECFEFD8E04C
:10007000DEBFCDBF0E94E0010C941B020C94000077
:10008000FC010B97C0F4E35EFD4F80917C000C9463
:1000900015028E7F80937C0080917C008D7F809301
:1000A0007C0080917C008B7F80937C0080917C0021
:1000B000877F80937C0008958160ECCF8E7F809352
:1000C0007C0080917C008260EACF8160F8CF8E7FD7
:1000D00080937C0080917C008D7F80937C00809158
:1000E0007C008460E1CF8160F3CF8E7F80937C00C1
:1000F00080917C008260F1CF8160F8CF8E7F809309
:100100007C0080917C008D7F80937C0080917C00BE
:100110008B7F80937C0080917C008860CACF8E7F2B
:1001200080937C0080917C00826080937C00809131
:100130007C008460EECF8160F3CFCF93DF93EC013E
:1001400080917A00806880937A00EC81FD81E730AD
:10015000F10598F4E85DFD4F80917A000C9415024A
:100160008E7F80937A0080917A008D7F80937A00D1
:1001700080917A008B7F80937A008A819B810E9494
:100180004000888199818130910591F182309105FB
:1001900099F1892B51F480917C008F7B80937C00B6
:1001A00080917C008F7780937C00DF91CF910895C0
:1001B0008E7F80937A0080917A008260D7CF8160B1
:1001C000F8CF8E7F80937A0080917A008D7F809324
:1001D0007A0080917A008460CECF8160F3CF8E7FE9
:1001E00080937A0080917A008260F1CF8160F8CFAD
:1001F00080917C008064D2CF80917C008064809369
:100200007C0080917C008068CECFEAE7F0E08081BE
:1002100080648083089580917A0082958F70D9F3ED
:1002200080917A00806180937A008091780090912B
:1002300079000895FC010797F8F4E15DFD4F0C94F7
:10024000150289E08093C50080E68093C40008957C
:1002500082E18093C50080ECF8CF85E28093C500F1
:1002600080E8F3CF88E38093C50080E4EECF8BE491
:100270008093C5001092C400089580E7EFCF86E90F
:10028000F7CFCF93DF93EC018091C2008F7B8093F7
:10029000C2008091C2008F778093C2008091C1001C
:1002A00088608093C1008091C10080618093C1000B
:1002B000888199810E941A018A819B8181309105F0
:1002C00069F18230910599F1892B51F48091C20036
:1002D0008F7E8093C2008091C2008F7D8093C20088
:1002E0008C819D81009739F1019759F18E819F8111
:1002F00082309105C9F148F5892B91F58091C200B2
:100300008D7F8093C2008091C2008B7F8093C2005A
:100310008091C1008B7F8093C1001CC08091C2007E
:100320008F7E8093C2008091C2008062D7CF80917F
:10033000C2008061F6CF8091C200877F8093C200A7
:10034000D5CF8091C2008860F9CF83309105A9F0A4
:100350000497B9F08A859B85DF91CF910C941A019F
:100360008091C2008260CDCF8091C2008D7F80934A
:10037000C2008091C2008460C9CF8091C2008260B7
:10038000F6CF8091C20082608093C2008091C2004B
:1003900084608093C2008091C1008460BCCF809152
:1003A000C00087FFFCCF8091C60090E00895909137
:1003B000C000929596959770D1F38093C6000895EA
:1003C000CDB7DEB766970FB6F894DEBF0FBECDBFD0
:1003D0001C8A1B8A188A1F861E8A1D8A86E090E066
:1003E0009A8B898B01E010E01E870D87CE010D9658
:1003F0000E949D0082E090E09A83898383E090E0F0
:1004000098878F831C830B831E821D821C870B871A
:100410001A870987CE0101960E9441010E940501B9
:100420000E940B010E94D701F9CFEE0FFF1F05902C
:10043000F491E02D0994F894FFCF49005C005E0030
:1004400065006700730075007C007E008F009B00D4
:10045000B000D800DF00E100ED00EF00F600210160
:0C04600028012D01320137013D013F0150
:00000001FF
