:100000000C9434000C943E000C943E000C943E0082
:100010000C943E000C943E000C943E000C943E0068
:100020000C943E000C943E000C943E000C943E0058
:100030000C943E000C943E000C943E000C943E0048
:100040000C943E000C943E000C943E000C943E0038
:100050000C943E000C943E000C943E000C943E0028
:100060000C943E000C943E0011241FBECFEFD8E04C
:10007000DEBFCDBF0E9406010C942F010C9400003E
:10008000FC010797F8F4EF5CFE4F0C94290189E01E
:100090008093C50080E68093C400089582E1809338
:1000A000C50080ECF8CF85E28093C50080E8F3CFEF
:1000B00088E38093C50080E4EECF8BE48093C50095
:1000C0001092C400089580E7EFCF86E9F7CFCF9371
:1000D000DF93EC018091C2008F7B8093C2008091FE
:1000E000C2008F778093C2008091C10088608093A6
:1000F000C1008091C10080618093C1008881998195
:100100000E9440008A819B818130910569F1823093
:10011000910599F1892B51F48091C2008F7E8093D3
:10012000C2008091C2008F7D8093C2008C819D812E
:10013000009739F1019759F18E819F8182309105A5
:10014000C9F148F5892B91F58091C2008D7F80938C
:10015000C2008091C2008B7F8093C2008091C10059
:100160008B7F8093C1001CC08091C2008F7E8093E2
:10017000C2008091C2008062D7CF8091C2008061AE
:10018000F6CF8091C200877F8093C200D5CF809147
:10019000C2008860F9CF83309105A9F00497B9F0C7
:1001A0008A859B85DF91CF910C9440008091C2009D
:1001B0008260CDCF8091C2008D7F8093C2008091FC
:1001C000C2008460C9CF8091C2008260F6CF809166
:1001D000C20082608093C2008091C20084608093DC
:1001E000C2008091C1008460BCCF8091C00087FFB5
:1001F000FCCF8091C60090E008959091C000929548
:1002000096959770D1F38093C6000895CDB7DEB769
:100210002C970FB6F894DEBF0FBECDBF82E090E002
:100220009A83898383E090E098878F8381E090E0D0
:100230009C838B831E821D829C878B879A878987EC
:10024000CE0101960E9467000E94F5000E94FD0009
:10025000FBCFEE0FFF1F0590F491E02D0994F89469
:10026000FFCF47004E00530058005D00630065005B
:00000001FF
