:100000000C9434000C943E000C943E000C943E0082
:100010000C943E000C943E000C943E000C943E0068
:100020000C943E000C943E000C943E000C943E0058
:100030000C943E000C943E000C943E000C943E0048
:100040000C943E000C943E000C943E000C943E0038
:100050000C943E000C943E000C943E000C943E0028
:100060000C94C0010C943E0011241FBECFEFD8E0C9
:10007000DEBFCDBF0E94DE010C9403020C94000091
:10008000CF93DF93CDB7DEB728970FB6F894DEBFD6
:100090000FBECDBF29833A834B835C836D837E8300
:1000A0008F83988729813A818C819D81009711F1F6
:1000B000019731F18091BC0084608093BC008091F5
:1000C000BC0080648093BC0021153105E1F58E8170
:1000D0009F818230910551F1B8F4892B19F58091F7
:1000E000B9008E7F8093B9008091B9008D7F809395
:1000F000B9000CC08091BC0081608093BC00DACF55
:100100008091BC008E7FF9CF0397C9F08B818093DB
:10011000B80028960FB6F894DEBF0FBECDBFDF91B2
:10012000CF9108958091B9008160DCCF8091B900B2
:100130008E7F8093B9008091B9008260D8CF809182
:10014000B9008160F6CF2130310519F784E480933E
:10015000BC008885880F8093BA008091BC008160C4
:100160008093BC00D6CF8091BC0080688093BC0097
:100170008091BC0080628093BC008091BC00846050
:100180008093BC008091BC0087FFFCCF8091B900B8
:10019000887F8830D9F708958091BC00806880936B
:1001A000BC008091BC0080628093BC008091BC0048
:1001B00084608093BC008091BC0087FFFCCF80915D
:1001C000B900887F8031D9F70895880F8093BB00EC
:1001D0008091BC0080688093BC008091BC008460EA
:1001E0008093BC008091BC0087FFFCCF8091B90058
:1001F000887F8831D9F70895880F8093BB0080915C
:10020000BB0081608093BB008091BC0080688093BC
:10021000BC008091BC0084608093BC008091BC00D5
:1002200087FFFCCF8091B900887F8034D9F708958B
:100230008093BB008091BC0080688093BC0080915B
:10024000BC0084608093BC008091BC0087FFFCCF21
:100250008091B900887F8832D9F708958091BC00D9
:1002600080688093BC008091BC0084608093BC0057
:100270008FEF8093BB008091BC0087FFFCCF87E0AD
:100280008BB98091B900887F8035D9F78091BB0008
:100290000895ECEBF0E0808180688083808180614C
:1002A000808308958091BC0080688093BC00809119
:1002B000BC0084608093BC008091BC00806480930B
:1002C000BC008091BC0087FFFCCF8091B900887F83
:1002D0008036D9F708958091BC0080688093BC0077
:1002E0008091BC0084608093BC008091BC008064DD
:1002F0008093BC008091BC0087FFFCCF8091B90047
:10030000887F883AD9F708959091BC0097FFFCCF79
:100310008093BB008091BC0080688093BC0080917A
:10032000BC0084608093BC008091BC00806480939A
:10033000BC008091BC0087FFFCCF87E08BB9809127
:10034000B900887F883BD9F708958091BC00806808
:100350008093BC008091BC0084608093BC0080913D
:10036000BC0080648093BC008091BC0087FFFCCF00
:100370008091B900887F8038D9F78091BB000895BB
:100380008F938FB78F938091B900887F803831F039
:10039000883A41F085EC8093BC000CC08091BB0092
:1003A0008BB9F8CF88E78093BB0085EC8093BC00C5
:1003B00087E08BB98F918FBF8F911895CDB7DEB73E
:1003C00028970FB6F894DEBF0FBECDBF8AB18FEF6E
:1003D0008AB91F821E8281E0582F1A82198220E07A
:1003E0003A8142E660E070E08F8198850E9440008B
:1003F0000E94B30081E00E94FC000E942E018BB994
:0A04000087E08BB9FFCFF894FFCF1F
:00000001FF
