:100000000C9434000C9446000C9446000C9446006A
:100010000C9446000C9446000C9446000C94250366
:100020000C944E030C9472030C9446000C94EC0454
:100030000C9415050C9439050C9469010C949201EB
:100040000C94B6010C9446000C9446000C944600A7
:100050000C9446000C9446000C9446000C94460008
:100060000C9446000C94460011241FBECFEFD8E03C
:10007000DEBFCDBF21E0A0E0B1E001C01D92A630FF
:10008000B207E1F70E945D050C946E050C94000028
:10009000FC018FB78F778FBF808186BD818187BD3F
:1000A00084819581009799F0019721F1868197814C
:1000B0008230910509F44EC098F5892B09F044C0AF
:1000C00084B58F7784BD84B58F7B84BD2BC084B508
:1000D0008E7F84BD84B58D7F84BD85B5877F85BDCA
:1000E00080859185019711F780916E0081608093E2
:1000F0006E00DCCF84B58E7F84BD84B5826084BD04
:1001000085B5877F85BD80859185019779F680913A
:100110006E00826080936E0080916E008460E7CFF5
:100120000397D9F0828193818230910541F1C0F427
:10013000892BF9F485B5816085BD85B58D7F85BD39
:1001400085B58B7F85BD11C084B58F7784BD84B59F
:100150008064BBCF84B58068B5CF84B58068F6CFA6
:100160008330910579F00497B1F08FB780688FBF25
:10017000089585B58E7F85BD85B58260E0CF85B554
:100180008160F9CF85B58E7F85BD85B58D7F85BDB5
:1001900085B58460D7CF85B58160F6CF2091040105
:1001A00030910501232B21F08093040190930501E8
:1001B00008958FB78F778FBF85B58E7F85BD85B545
:1001C0008D7F85BD85B58B7F85BD8FB780688FBFDF
:1001D0000895CF92DF92EF92FF92CF93DF93CDB746
:1001E000DEB72A970FB6F894DEBF0FBECDBF6B0106
:1001F0007C010E94D900198289EF8A831A861986A8
:1002000082E090E09C838B8381E090E09E838D83ED
:1002100018861F82CE0101960E94480080E090E07F
:10022000DC018C159D05AE05BF0569F42A960FB655
:10023000F894DEBF0FBECDBFDF91CF91FF90EF905E
:10024000DF90CF900895A89BECCF0196A11DB11D22
:10025000A89AE7CFCF92DF92EF92FF92CF93DF93EE
:10026000CDB7DEB72A970FB6F894DEBF0FBECDBF6D
:100270006B017C010E94D90019828FE08A831A8663
:1002800019861C821B8281E090E09E838D831886F4
:100290001F82CE0101960E94480080E090E0DC01C0
:1002A0008C159D05AE05BF0569F42A960FB6F89426
:1002B000DEBF0FBECDBFDF91CF91FF90EF90DF90FB
:1002C000CF900895A99BECCF0196A11DB11DA99ACD
:1002D000E7CF1F920F920FB60F9211242F933F93E7
:1002E0004F935F936F937F938F939F93AF93BF933E
:1002F000EF93FF93E0910401F0910501309709F02D
:100300000995FF91EF91BF91AF919F918F917F914F
:100310006F915F914F913F912F910F900FBE0F9072
:100320001F9018951F920F920FB60F9211242F93C2
:100330003F934F935F936F937F938F939F93AF936D
:10034000BF93EF93FF930E946901FF91EF91BF91DB
:10035000AF919F918F917F916F915F914F913F915D
:100360002F910F900FBE0F901F9018951F920F9214
:100370000FB60F9211242F933F934F935F936F9378
:100380007F938F939F93AF93BF93EF93FF930E94BD
:100390006901FF91EF91BF91AF919F918F917F91F3
:1003A0006F915F914F913F912F910F900FBE0F90E2
:1003B0001F901895FC018FB78F778FBF8081809336
:1003C000B20081818093B300848195810097C1F050
:1003D000019779F1868197818230910509F469C08E
:1003E00008F044C0892B09F05BC08091B0008F7782
:1003F0008093B0008091B0008F7B8093B00038C0B4
:100400008091B0008E7F8093B0008091B0008D7F8E
:100410008093B0008091B100877F8093B100808588
:1004200091850197B9F6809170008160809370008A
:10043000D1CF8091B0008E7F8093B0008091B000CA
:1004400082608093B0008091B100877F8093B1007B
:1004500080859185019709F0BDCF80917000826001
:1004600080937000809170008460E0CF039729F141
:100470008281938182309105B1F118F5892B51F574
:100480008091B10081608093B1008091B1008D7F37
:100490008093B1008091B1008B7F8093B10016C032
:1004A0008091B0008F778093B0008091B00080641D
:1004B000A4CF8091B00080689BCF8091B00080680D
:1004C000F2CF83309105E9F0049721F18FB780686E
:1004D0008FBF08958091B1008E7F8093B10080918D
:1004E000B1008260D5CF8091B1008E7F8093B10042
:1004F0008091B1008D7F8093B1008091B1008460C4
:10050000CCCF8091B1008E7F8093B1008091B100FB
:100510008260F1CF8091B1008160F6CF209100011F
:1005200030910101232B21F0809300019093010170
:100530000895E1EBF0E080818E7F808380818D7F64
:10054000808380818B7F80830895CF92DF92EF92AA
:10055000FF92CF93DF93CDB7DEB72A970FB6F8940B
:10056000DEBF0FBECDBF6B017C010E9499021982D4
:1005700089EF8A831A86198682E090E09C838B83B8
:1005800081E090E09E838D8318861F82CE010196C4
:100590000E94DA0180E090E0DC018C159D05AE053B
:1005A000BF0569F42A960FB6F894DEBF0FBECDBF23
:1005B000DF91CF91FF90EF90DF90CF900895B89B9F
:1005C000ECCF0196A11DB11DB89AE7CFCF92DF9273
:1005D000EF92FF92CF93DF93CDB7DEB72A970FB696
:1005E000F894DEBF0FBECDBF6B017C010E94990263
:1005F00019828FE08A831A8619861C821B8281E009
:1006000090E09E838D8318861F82CE0101960E9402
:10061000DA0180E090E0DC018C159D05AE05BF0598
:1006200069F42A960FB6F894DEBF0FBECDBFDF91F6
:10063000CF91FF90EF90DF90CF900895B99BECCFD2
:100640000196A11DB11DB99AE7CF1F920F920FB667
:100650000F9211242F933F934F935F936F937F9348
:100660008F939F93AF93BF93EF93FF93E09100011C
:10067000F0910101309709F00995FF91EF91BF9139
:10068000AF919F918F917F916F915F914F913F912A
:100690002F910F900FBE0F901F9018951F920F92E1
:1006A0000FB60F9211242F933F934F935F936F9345
:1006B0007F938F939F93AF93BF93EF93FF930E948A
:1006C0002503FF91EF91BF91AF919F918F917F9102
:1006D0006F915F914F913F912F910F900FBE0F90AF
:1006E0001F9018951F920F920FB60F9211242F93FF
:1006F0003F934F935F936F937F938F939F93AF93AA
:10070000BF93EF93FF930E942503FF91EF91BF9159
:10071000AF919F918F917F916F915F914F913F9199
:100720002F910F900FBE0F901F901895FC018FB75F
:100730008F778FBF80819181909385008093840013
:10074000828193819093890080938800868197812C
:100750000097C1F00197A1F18681978182309105C0
:1007600009F473C008F04EC0892B09F065C0809170
:1007700080008F7780938000809180008F7B8093B2
:10078000800042C0809180008E7F809380008091A5
:1007900080008D7F8093800080918100877F80938F
:1007A0008100809181008F7E809381008285938576
:1007B000019791F680916F00816080936F00CCCF9C
:1007C000809180008E7F80938000809180008D7F5B
:1007D0008093800080918100886080938100809167
:1007E00081008F7E8093810082859385019709F037
:1007F000B3CF80916F00826080936F0080916F0013
:100800008460DBCF039729F1848195818230910543
:10081000B1F118F5892B51F58091810081608093A9
:100820008100809181008D7F809381008091810083
:100830008B7F8093810016C0809180008F7780939A
:1008400080008091800080649ACF809180008068D1
:1008500091CF809180008068F2CF8330910599F02C
:100860000497F9F08FB780688FBF08958091810059
:100870008E7F80938100809181008260D5CF8091AE
:1008800081008160F6CF809181008E7F809381000E
:10089000809181008D7F80938100809181008460B0
:1008A000C8CF809181008160F1CF20910201309109
:1008B0000301232B21F080930201909303010895FB
:1008C000E1E8F0E080818E7F808380818D7F80836E
:1008D00080818B7F80830895CF92DF92EF92FF9289
:1008E000CF93DF93CDB7DEB72A970FB6F894DEBF6C
:1008F0000FBECDBF6B017C010E946004198289EF9D
:100900008A831A86198682E090E09C838B8381E03B
:1009100090E09E838D8318861F82CE0101960E94EF
:10092000960380E090E0DC018C159D05AE05BF05C7
:1009300069F42A960FB6F894DEBF0FBECDBFDF91E3
:10094000CF91FF90EF90DF90CF900895B89BECCFC0
:100950000196A11DB11DB89AE7CFCF92DF92EF9219
:10096000FF92CF93DF93CDB7DEB72A970FB6F894F7
:10097000DEBF0FBECDBF6B017C010E9460041982F7
:100980008FE08A831A8619861C821B8281E090E0A0
:100990009E838D8318861F82CE0101960E94960346
:1009A00080E090E0DC018C159D05AE05BF0569F483
:1009B0002A960FB6F894DEBF0FBECDBFDF91CF9160
:1009C000FF90EF90DF90CF900895B99BECCF019608
:1009D000A11DB11DB99AE7CF1F920F920FB60F92CA
:1009E00011242F933F934F935F936F937F938F9334
:1009F0009F93AF93BF93EF93FF93E0910201F09128
:100A00000301309709F00995FF91EF91BF91AF91E4
:100A10009F918F917F916F915F914F913F912F9116
:100A20000F900FBE0F901F9018951F920F920FB648
:100A30000F9211242F933F934F935F936F937F9364
:100A40008F939F93AF93BF93EF93FF930E94EC0418
:100A5000FF91EF91BF91AF919F918F917F916F9196
:100A60005F914F913F912F910F900FBE0F901F906C
:100A700018951F920F920FB60F9211242F933F9348
:100A80004F935F936F937F938F939F93AF93BF9396
:100A9000EF93FF930E94EC04FF91EF91BF91AF9110
:100AA0009F918F917F916F915F914F913F912F9186
:100AB0000F900FBE0F901F901895259A2D982D9A84
:100AC00068EE73E080E090E00E94E9002D9868EE07
:100AD00073E080E090E00E94E900F1CFF894FFCF4E
:00000001FF
