:100000000C9434000C943E000C943E000C943E0082
:100010000C943E000C943E000C943E000C943E0068
:100020000C943E000C943E000C943E000C943E0058
:100030000C943E000C943E000C943E000C943E0048
:100040000C943E000C943E000C943E000C943E0038
:100050000C943E000C943E000C943E000C943E0028
:100060000C943E000C943E0011241FBECFEFD8E04C
:10007000DEBFCDBF0E94C7000C94F1000C940000BD
:10008000DC018CB580648CBD8D919C911197892B7E
:10009000E1F4229A239A2498259A8CB580618CBD2C
:1000A0002A9A1696ED91FC911797E730F10568F4BE
:1000B000ED50FF4F8CB50C94EB008E7F8CBD8CB552
:1000C0008D7F8CBD8DB581608DBD8D919C9111977B
:1000D000019739F422982398249A25988CB58F7E1D
:1000E0008CBD12968D919C911397009759F10197B1
:1000F00069F114968D919C911597009751F1019794
:1001000061F118968D919C91009751F1019761F1E1
:100110002A9808958E7F8CBD8CB58D7F8CBD8DB552
:100120008E7FD2CF8160CACF8160F5CF8E7F8CBDAC
:100130008CB58260C6CF8160FACF81608CBD8CB5F2
:100140008260ECCF8CB5877F8CBDD3CF8CB58860B7
:10015000FBCF8CB58B7F8CBDD4CF8CB58460FBCFAF
:100160008CB58F778CBDD4CF8CB58068FBCF0DB4A8
:1001700007FEFDCF8EB508958EBD0DB407FEFDCFF1
:1001800008958EBD0DB407FEFDCF8EB50895CDB791
:10019000DEB72A970FB6F894DEBF0FBECDBF81E061
:1001A00090E09A83898386E090E098878F83CE01E0
:1001B00001960E9440001E821D821C821B821A86AC
:1001C00019868AB18FEF8AB90E94B7008BB987E789
:1001D0000E94BC00FFCFEE0FFF1F0590F491E02DB1
:1001E0000994F894FFCF5D008A0092009400960075
:0401F0009B009D00D3
:00000001FF
