:100000000C9434000C943E000C943E000C943E0082
:100010000C943E000C943E000C943E000C943E0068
:100020000C943E000C943E000C943E000C943E0058
:100030000C943E000C943E000C943E000C943E0048
:100040000C943E000C943E000C943E000C943E0038
:100050000C943E000C943E000C943E000C943E0028
:100060000C943E000C943E0011241FBECFEFD8E04C
:10007000DEBFCDBF0E941B010C9443010C94000015
:100080008330A0F5813099F0823011F1663070F53F
:1000900081E090E001C0880F6A95EAF794B1452BA2
:1000A00021F48095892384B90895892BFCCF67308A
:1000B000E8F481E090E001C0880F6A95EAF797B113
:1000C000452B21F48095892387B90895892BFCCF8E
:1000D000683060F481E090E001C0880F6A95EAF72B
:1000E0009AB1452B21F4809589238AB90895892BEB
:1000F000FCCF833008F053C08130F1F08230B9F189
:10010000663008F04CC084B190E0062E02C0959590
:1001100087950A94E2F780FF42C081E090E001C039
:10012000880F6A95EAF795B1411104C0809589233B
:1001300085B90895892BFCCF673088F587B190E0A9
:10014000062E02C0959587950A94E2F780FF27C096
:1001500081E090E001C0880F6A95EAF798B14111FB
:1001600004C08095892388B90895892BFCCF683015
:10017000B0F48AB190E0062E02C0959587950A9456
:10018000E2F780FF0CC081E090E001C0880F6A9523
:10019000EAF79BB1411104C0809589238BB908957A
:1001A000892BFCCF833078F4813079F0823089F06C
:1001B000663048F483B190E002C0959587956A95C2
:1001C000E2F7982F9170892F08956730E0F786B194
:1001D000F2CF6830C0F789B1EECF833048F4813078
:1001E00021F0823021F064B9089567B908956AB9A1
:1001F0000895833090F4813039F0823051F084B129
:100200008F3F59F465B9089587B18F3F31F468B9CC
:1002100008958AB18F3F09F46BB90895833028F4AB
:10022000813029F0823029F093B1892F089596B159
:10023000FCCF99B1FACF4FEF50E065E080E00E942B
:10024000400040E065E080E00E94790040E065E029
:1002500080E00E9479002FEF89E698E121508040EC
:100260009040E1F700C0000041E065E080E00E94BE
:1002700079002FEF89E698E1215080409040E1F726
:0A02800000C00000E3CFF894FFCFA8
:00000001FF
